:1000000049C0000057C0000055C0000053C00000A8
:1000100051C000004FC000004DC000004BC00000A8
:1000200049C0000047C0000045C0000043C00000B8
:1000300041C000003FC000003DC000003BC00000C8
:1000400039C0000037C0000035C0000033C00000D8
:1000500031C000002FC000002DC000002BC00000E8
:1000600029C0000027C0000025C0000023C00000F8
:1000700021C000001FC000001DC000001BC0000008
:1000800019C0000017C0000015C0000013C0000018
:1000900011C0000011241FBECFEFD0E1DEBFCDBFE5
:1000A00021E0A0E0B1E001C01D92A030B207E1F76D
:1000B0006DD09CC0A5CF672B69F041B121E030E045
:1000C000B90102C0660F771F8A95E2F7CB01842B36
:1000D00081B9089541B121E030E0B90102C0660F55
:1000E000771F8A95E2F7CB018095842381B9089523
:1000F000672B69F042B121E030E0B90102C0660F20
:10010000771F8A95E2F7CB01842B82B9089542B11B
:1001100021E030E0B90102C0660F771F8A95E2F74F
:10012000CB018095842382B90895672B69F042B191
:1001300021E030E0B90102C0660F771F8A95E2F72F
:10014000CB01842B82B9089542B121E030E0B9019E
:1001500002C0660F771F8A95E2F7CB018095842352
:1001600082B9089520B1422F50E021E030E002C072
:10017000220F331F8A95E2F724233523232B19F00E
:1001800081E090E0089580E090E0089561E070E003
:1001900081E090E090DF60E070E087E090E08BDF4E
:1001A00061E070E087E090E0A3DF60E070E084E071
:1001B00090E081DF61E070E084E090E099DF87E02B
:1001C00090E0D0DFEC0184E090E0CCDFCD2B11F4A7
:1001D000892B31F061E070E081E090E0A6DFEFCFA5
:1001E00060E070E081E090E0A0DFE9CFF894FFCF1D
:00000001FF
